{
  "contractName": "TimelessNFT",
  "abi": [
    {
      "inputs": [
        {
          "internalType": "string",
          "name": "_name",
          "type": "string"
        },
        {
          "internalType": "string",
          "name": "_symbol",
          "type": "string"
        },
        {
          "internalType": "uint256",
          "name": "_royalityFee",
          "type": "uint256"
        },
        {
          "internalType": "address",
          "name": "_artist",
          "type": "address"
        }
      ],
      "stateMutability": "nonpayable",
      "type": "constructor"
    },
    {
      "anonymous": false,
      "inputs": [
        {
          "indexed": true,
          "internalType": "address",
          "name": "owner",
          "type": "address"
        },
        {
          "indexed": true,
          "internalType": "address",
          "name": "approved",
          "type": "address"
        },
        {
          "indexed": true,
          "internalType": "uint256",
          "name": "tokenId",
          "type": "uint256"
        }
      ],
      "name": "Approval",
      "type": "event"
    },
    {
      "anonymous": false,
      "inputs": [
        {
          "indexed": true,
          "internalType": "address",
          "name": "owner",
          "type": "address"
        },
        {
          "indexed": true,
          "internalType": "address",
          "name": "operator",
          "type": "address"
        },
        {
          "indexed": false,
          "internalType": "bool",
          "name": "approved",
          "type": "bool"
        }
      ],
      "name": "ApprovalForAll",
      "type": "event"
    },
    {
      "anonymous": false,
      "inputs": [
        {
          "indexed": true,
          "internalType": "address",
          "name": "previousOwner",
          "type": "address"
        },
        {
          "indexed": true,
          "internalType": "address",
          "name": "newOwner",
          "type": "address"
        }
      ],
      "name": "OwnershipTransferred",
      "type": "event"
    },
    {
      "anonymous": false,
      "inputs": [
        {
          "indexed": false,
          "internalType": "uint256",
          "name": "id",
          "type": "uint256"
        },
        {
          "indexed": true,
          "internalType": "address",
          "name": "owner",
          "type": "address"
        },
        {
          "indexed": false,
          "internalType": "uint256",
          "name": "cost",
          "type": "uint256"
        },
        {
          "indexed": false,
          "internalType": "string",
          "name": "metadataURI",
          "type": "string"
        },
        {
          "indexed": false,
          "internalType": "uint256",
          "name": "timestamp",
          "type": "uint256"
        }
      ],
      "name": "Sale",
      "type": "event"
    },
    {
      "anonymous": false,
      "inputs": [
        {
          "indexed": true,
          "internalType": "address",
          "name": "from",
          "type": "address"
        },
        {
          "indexed": true,
          "internalType": "address",
          "name": "to",
          "type": "address"
        },
        {
          "indexed": true,
          "internalType": "uint256",
          "name": "tokenId",
          "type": "uint256"
        }
      ],
      "name": "Transfer",
      "type": "event"
    },
    {
      "inputs": [
        {
          "internalType": "address",
          "name": "to",
          "type": "address"
        },
        {
          "internalType": "uint256",
          "name": "tokenId",
          "type": "uint256"
        }
      ],
      "name": "approve",
      "outputs": [],
      "stateMutability": "nonpayable",
      "type": "function"
    },
    {
      "inputs": [],
      "name": "artist",
      "outputs": [
        {
          "internalType": "address",
          "name": "",
          "type": "address"
        }
      ],
      "stateMutability": "view",
      "type": "function",
      "constant": true
    },
    {
      "inputs": [
        {
          "internalType": "address",
          "name": "owner",
          "type": "address"
        }
      ],
      "name": "balanceOf",
      "outputs": [
        {
          "internalType": "uint256",
          "name": "",
          "type": "uint256"
        }
      ],
      "stateMutability": "view",
      "type": "function",
      "constant": true
    },
    {
      "inputs": [],
      "name": "cost",
      "outputs": [
        {
          "internalType": "uint256",
          "name": "",
          "type": "uint256"
        }
      ],
      "stateMutability": "view",
      "type": "function",
      "constant": true
    },
    {
      "inputs": [
        {
          "internalType": "uint256",
          "name": "tokenId",
          "type": "uint256"
        }
      ],
      "name": "getApproved",
      "outputs": [
        {
          "internalType": "address",
          "name": "",
          "type": "address"
        }
      ],
      "stateMutability": "view",
      "type": "function",
      "constant": true
    },
    {
      "inputs": [
        {
          "internalType": "uint256",
          "name": "",
          "type": "uint256"
        }
      ],
      "name": "holderOf",
      "outputs": [
        {
          "internalType": "address",
          "name": "",
          "type": "address"
        }
      ],
      "stateMutability": "view",
      "type": "function",
      "constant": true
    },
    {
      "inputs": [
        {
          "internalType": "address",
          "name": "owner",
          "type": "address"
        },
        {
          "internalType": "address",
          "name": "operator",
          "type": "address"
        }
      ],
      "name": "isApprovedForAll",
      "outputs": [
        {
          "internalType": "bool",
          "name": "",
          "type": "bool"
        }
      ],
      "stateMutability": "view",
      "type": "function",
      "constant": true
    },
    {
      "inputs": [],
      "name": "name",
      "outputs": [
        {
          "internalType": "string",
          "name": "",
          "type": "string"
        }
      ],
      "stateMutability": "view",
      "type": "function",
      "constant": true
    },
    {
      "inputs": [],
      "name": "owner",
      "outputs": [
        {
          "internalType": "address",
          "name": "",
          "type": "address"
        }
      ],
      "stateMutability": "view",
      "type": "function",
      "constant": true
    },
    {
      "inputs": [
        {
          "internalType": "uint256",
          "name": "tokenId",
          "type": "uint256"
        }
      ],
      "name": "ownerOf",
      "outputs": [
        {
          "internalType": "address",
          "name": "",
          "type": "address"
        }
      ],
      "stateMutability": "view",
      "type": "function",
      "constant": true
    },
    {
      "inputs": [],
      "name": "renounceOwnership",
      "outputs": [],
      "stateMutability": "nonpayable",
      "type": "function"
    },
    {
      "inputs": [],
      "name": "royalityFee",
      "outputs": [
        {
          "internalType": "uint256",
          "name": "",
          "type": "uint256"
        }
      ],
      "stateMutability": "view",
      "type": "function",
      "constant": true
    },
    {
      "inputs": [
        {
          "internalType": "address",
          "name": "from",
          "type": "address"
        },
        {
          "internalType": "address",
          "name": "to",
          "type": "address"
        },
        {
          "internalType": "uint256",
          "name": "tokenId",
          "type": "uint256"
        }
      ],
      "name": "safeTransferFrom",
      "outputs": [],
      "stateMutability": "payable",
      "type": "function",
      "payable": true
    },
    {
      "inputs": [
        {
          "internalType": "address",
          "name": "from",
          "type": "address"
        },
        {
          "internalType": "address",
          "name": "to",
          "type": "address"
        },
        {
          "internalType": "uint256",
          "name": "tokenId",
          "type": "uint256"
        },
        {
          "internalType": "bytes",
          "name": "_data",
          "type": "bytes"
        }
      ],
      "name": "safeTransferFrom",
      "outputs": [],
      "stateMutability": "payable",
      "type": "function",
      "payable": true
    },
    {
      "inputs": [
        {
          "internalType": "address",
          "name": "operator",
          "type": "address"
        },
        {
          "internalType": "bool",
          "name": "approved",
          "type": "bool"
        }
      ],
      "name": "setApprovalForAll",
      "outputs": [],
      "stateMutability": "nonpayable",
      "type": "function"
    },
    {
      "inputs": [],
      "name": "supply",
      "outputs": [
        {
          "internalType": "uint256",
          "name": "",
          "type": "uint256"
        }
      ],
      "stateMutability": "view",
      "type": "function",
      "constant": true
    },
    {
      "inputs": [
        {
          "internalType": "bytes4",
          "name": "interfaceId",
          "type": "bytes4"
        }
      ],
      "name": "supportsInterface",
      "outputs": [
        {
          "internalType": "bool",
          "name": "",
          "type": "bool"
        }
      ],
      "stateMutability": "view",
      "type": "function",
      "constant": true
    },
    {
      "inputs": [],
      "name": "symbol",
      "outputs": [
        {
          "internalType": "string",
          "name": "",
          "type": "string"
        }
      ],
      "stateMutability": "view",
      "type": "function",
      "constant": true
    },
    {
      "inputs": [
        {
          "internalType": "uint256",
          "name": "index",
          "type": "uint256"
        }
      ],
      "name": "tokenByIndex",
      "outputs": [
        {
          "internalType": "uint256",
          "name": "",
          "type": "uint256"
        }
      ],
      "stateMutability": "view",
      "type": "function",
      "constant": true
    },
    {
      "inputs": [
        {
          "internalType": "address",
          "name": "owner",
          "type": "address"
        },
        {
          "internalType": "uint256",
          "name": "index",
          "type": "uint256"
        }
      ],
      "name": "tokenOfOwnerByIndex",
      "outputs": [
        {
          "internalType": "uint256",
          "name": "",
          "type": "uint256"
        }
      ],
      "stateMutability": "view",
      "type": "function",
      "constant": true
    },
    {
      "inputs": [
        {
          "internalType": "uint256",
          "name": "tokenId",
          "type": "uint256"
        }
      ],
      "name": "tokenURI",
      "outputs": [
        {
          "internalType": "string",
          "name": "",
          "type": "string"
        }
      ],
      "stateMutability": "view",
      "type": "function",
      "constant": true
    },
    {
      "inputs": [],
      "name": "totalSupply",
      "outputs": [
        {
          "internalType": "uint256",
          "name": "",
          "type": "uint256"
        }
      ],
      "stateMutability": "view",
      "type": "function",
      "constant": true
    },
    {
      "inputs": [],
      "name": "totalTx",
      "outputs": [
        {
          "internalType": "uint256",
          "name": "",
          "type": "uint256"
        }
      ],
      "stateMutability": "view",
      "type": "function",
      "constant": true
    },
    {
      "inputs": [
        {
          "internalType": "address",
          "name": "from",
          "type": "address"
        },
        {
          "internalType": "address",
          "name": "to",
          "type": "address"
        },
        {
          "internalType": "uint256",
          "name": "tokenId",
          "type": "uint256"
        }
      ],
      "name": "transferFrom",
      "outputs": [],
      "stateMutability": "payable",
      "type": "function",
      "payable": true
    },
    {
      "inputs": [
        {
          "internalType": "address",
          "name": "newOwner",
          "type": "address"
        }
      ],
      "name": "transferOwnership",
      "outputs": [],
      "stateMutability": "nonpayable",
      "type": "function"
    },
    {
      "inputs": [
        {
          "internalType": "string",
          "name": "title",
          "type": "string"
        },
        {
          "internalType": "string",
          "name": "description",
          "type": "string"
        },
        {
          "internalType": "string",
          "name": "metadataURI",
          "type": "string"
        },
        {
          "internalType": "uint256",
          "name": "salesPrice",
          "type": "uint256"
        }
      ],
      "name": "payToMint",
      "outputs": [],
      "stateMutability": "payable",
      "type": "function",
      "payable": true
    },
    {
      "inputs": [
        {
          "internalType": "uint256",
          "name": "id",
          "type": "uint256"
        }
      ],
      "name": "payToBuy",
      "outputs": [],
      "stateMutability": "payable",
      "type": "function",
      "payable": true
    },
    {
      "inputs": [
        {
          "internalType": "uint256",
          "name": "id",
          "type": "uint256"
        },
        {
          "internalType": "uint256",
          "name": "newPrice",
          "type": "uint256"
        }
      ],
      "name": "changePrice",
      "outputs": [
        {
          "internalType": "bool",
          "name": "",
          "type": "bool"
        }
      ],
      "stateMutability": "nonpayable",
      "type": "function"
    },
    {
      "inputs": [],
      "name": "getAllNFTs",
      "outputs": [
        {
          "components": [
            {
              "internalType": "uint256",
              "name": "id",
              "type": "uint256"
            },
            {
              "internalType": "address",
              "name": "owner",
              "type": "address"
            },
            {
              "internalType": "uint256",
              "name": "cost",
              "type": "uint256"
            },
            {
              "internalType": "string",
              "name": "title",
              "type": "string"
            },
            {
              "internalType": "string",
              "name": "description",
              "type": "string"
            },
            {
              "internalType": "string",
              "name": "metadataURI",
              "type": "string"
            },
            {
              "internalType": "uint256",
              "name": "timestamp",
              "type": "uint256"
            }
          ],
          "internalType": "struct TimelessNFT.TransactionStruct[]",
          "name": "",
          "type": "tuple[]"
        }
      ],
      "stateMutability": "view",
      "type": "function",
      "constant": true
    },
    {
      "inputs": [
        {
          "internalType": "uint256",
          "name": "id",
          "type": "uint256"
        }
      ],
      "name": "getNFT",
      "outputs": [
        {
          "components": [
            {
              "internalType": "uint256",
              "name": "id",
              "type": "uint256"
            },
            {
              "internalType": "address",
              "name": "owner",
              "type": "address"
            },
            {
              "internalType": "uint256",
              "name": "cost",
              "type": "uint256"
            },
            {
              "internalType": "string",
              "name": "title",
              "type": "string"
            },
            {
              "internalType": "string",
              "name": "description",
              "type": "string"
            },
            {
              "internalType": "string",
              "name": "metadataURI",
              "type": "string"
            },
            {
              "internalType": "uint256",
              "name": "timestamp",
              "type": "uint256"
            }
          ],
          "internalType": "struct TimelessNFT.TransactionStruct",
          "name": "",
          "type": "tuple"
        }
      ],
      "stateMutability": "view",
      "type": "function",
      "constant": true
    },
    {
      "inputs": [],
      "name": "getAllTransactions",
      "outputs": [
        {
          "components": [
            {
              "internalType": "uint256",
              "name": "id",
              "type": "uint256"
            },
            {
              "internalType": "address",
              "name": "owner",
              "type": "address"
            },
            {
              "internalType": "uint256",
              "name": "cost",
              "type": "uint256"
            },
            {
              "internalType": "string",
              "name": "title",
              "type": "string"
            },
            {
              "internalType": "string",
              "name": "description",
              "type": "string"
            },
            {
              "internalType": "string",
              "name": "metadataURI",
              "type": "string"
            },
            {
              "internalType": "uint256",
              "name": "timestamp",
              "type": "uint256"
            }
          ],
          "internalType": "struct TimelessNFT.TransactionStruct[]",
          "name": "",
          "type": "tuple[]"
        }
      ],
      "stateMutability": "view",
      "type": "function",
      "constant": true
    },
    {
      "inputs": [],
      "name": "getOwnedNFTs",
      "outputs": [
        {
          "components": [
            {
              "internalType": "uint256",
              "name": "id",
              "type": "uint256"
            },
            {
              "internalType": "address",
              "name": "owner",
              "type": "address"
            },
            {
              "internalType": "uint256",
              "name": "cost",
              "type": "uint256"
            },
            {
              "internalType": "string",
              "name": "title",
              "type": "string"
            },
            {
              "internalType": "string",
              "name": "description",
              "type": "string"
            },
            {
              "internalType": "string",
              "name": "metadataURI",
              "type": "string"
            },
            {
              "internalType": "uint256",
              "name": "timestamp",
              "type": "uint256"
            }
          ],
          "internalType": "struct TimelessNFT.TransactionStruct[]",
          "name": "",
          "type": "tuple[]"
        }
      ],
      "stateMutability": "view",
      "type": "function",
      "constant": true
    },
    {
      "inputs": [],
      "name": "getAccountTransactions",
      "outputs": [
        {
          "components": [
            {
              "internalType": "uint256",
              "name": "id",
              "type": "uint256"
            },
            {
              "internalType": "address",
              "name": "owner",
              "type": "address"
            },
            {
              "internalType": "uint256",
              "name": "cost",
              "type": "uint256"
            },
            {
              "internalType": "string",
              "name": "title",
              "type": "string"
            },
            {
              "internalType": "string",
              "name": "description",
              "type": "string"
            },
            {
              "internalType": "string",
              "name": "metadataURI",
              "type": "string"
            },
            {
              "internalType": "uint256",
              "name": "timestamp",
              "type": "uint256"
            }
          ],
          "internalType": "struct TimelessNFT.TransactionStruct[]",
          "name": "",
          "type": "tuple[]"
        }
      ],
      "stateMutability": "view",
      "type": "function",
      "constant": true
    }
  ],
  "bytecode": "0x60806040526000600f556000601055662386f26fc100006011553480156200002657600080fd5b50604051620061ef380380620061ef83398181016040528101906200004c9190620004af565b8383816000908051906020019062000066929190620001c2565b5080600190805190602001906200007f929190620001c2565b505050620000a262000096620000f460201b60201c565b620000fc60201b60201c565b81600e8190555080600d60006101000a81548173ffffffffffffffffffffffffffffffffffffffff021916908373ffffffffffffffffffffffffffffffffffffffff16021790555050505050620005c4565b600033905090565b6000600a60009054906101000a900473ffffffffffffffffffffffffffffffffffffffff16905081600a60006101000a81548173ffffffffffffffffffffffffffffffffffffffff021916908373ffffffffffffffffffffffffffffffffffffffff1602179055508173ffffffffffffffffffffffffffffffffffffffff168173ffffffffffffffffffffffffffffffffffffffff167f8be0079c531659141344cd1fd0a4f28419497f9722a3daafe3b4186f6b6457e060405160405180910390a35050565b828054620001d0906200058e565b90600052602060002090601f016020900481019282620001f4576000855562000240565b82601f106200020f57805160ff191683800117855562000240565b8280016001018555821562000240579182015b828111156200023f57825182559160200191906001019062000222565b5b5090506200024f919062000253565b5090565b5b808211156200026e57600081600090555060010162000254565b5090565b6000604051905090565b600080fd5b600080fd5b600080fd5b600080fd5b6000601f19601f8301169050919050565b7f4e487b7100000000000000000000000000000000000000000000000000000000600052604160045260246000fd5b620002db8262000290565b810181811067ffffffffffffffff82111715620002fd57620002fc620002a1565b5b80604052505050565b60006200031262000272565b9050620003208282620002d0565b919050565b600067ffffffffffffffff821115620003435762000342620002a1565b5b6200034e8262000290565b9050602081019050919050565b60005b838110156200037b5780820151818401526020810190506200035e565b838111156200038b576000848401525b50505050565b6000620003a8620003a28462000325565b62000306565b905082815260208101848484011115620003c757620003c66200028b565b5b620003d48482856200035b565b509392505050565b600082601f830112620003f457620003f362000286565b5b81516200040684826020860162000391565b91505092915050565b6000819050919050565b62000424816200040f565b81146200043057600080fd5b50565b600081519050620004448162000419565b92915050565b600073ffffffffffffffffffffffffffffffffffffffff82169050919050565b600062000477826200044a565b9050919050565b62000489816200046a565b81146200049557600080fd5b50565b600081519050620004a9816200047e565b92915050565b60008060008060808587031215620004cc57620004cb6200027c565b5b600085015167ffffffffffffffff811115620004ed57620004ec62000281565b5b620004fb87828801620003dc565b945050602085015167ffffffffffffffff8111156200051f576200051e62000281565b5b6200052d87828801620003dc565b9350506040620005408782880162000433565b9250506060620005538782880162000498565b91505092959194509250565b7f4e487b7100000000000000000000000000000000000000000000000000000000600052602260045260246000fd5b60006002820490506001821680620005a757607f821691505b60208210811415620005be57620005bd6200055f565b5b50919050565b615c1b80620005d46000396000f3fe6080604052600436106101ee5760003560e01c80636352211e1161010d578063a22cb465116100a0578063c87b56dd1161006f578063c87b56dd146106d4578063dbacc23714610711578063e0391b091461074e578063e985e9c514610779578063f2fde38b146107b6576101ee565b8063a22cb46514610627578063b3de019c14610650578063b88d4fde1461068d578063c682cce4146106a9576101ee565b8063799c0c1e116100dc578063799c0c1e146105995780638da5cb5b146105b557806395d89b41146105e05780639ba4b0171461060b576101ee565b80636352211e146104dd57806370a082311461051a578063715018a6146105575780637220cf391461056e576101ee565b806327506f531161018557806343bc16121161015457806343bc16121461040d5780634c0eb7d9146104385780634f6ccce714610463578063576f7ea7146104a0576101ee565b806327506f531461035e5780632f745c5914610389578063326bb4ad146103c657806342842e0e146103f1576101ee565b8063095ea7b3116101c1578063095ea7b3146102c357806313faede6146102ec57806318160ddd1461031757806323b872dd14610342576101ee565b806301ffc9a7146101f3578063047fc9aa1461023057806306fdde031461025b578063081812fc14610286575b600080fd5b3480156101ff57600080fd5b5061021a600480360381019061021591906140b4565b6107df565b60405161022791906140fc565b60405180910390f35b34801561023c57600080fd5b50610245610859565b6040516102529190614130565b60405180910390f35b34801561026757600080fd5b5061027061085f565b60405161027d91906141e4565b60405180910390f35b34801561029257600080fd5b506102ad60048036038101906102a89190614232565b6108f1565b6040516102ba91906142a0565b60405180910390f35b3480156102cf57600080fd5b506102ea60048036038101906102e591906142e7565b610976565b005b3480156102f857600080fd5b50610301610a8e565b60405161030e9190614130565b60405180910390f35b34801561032357600080fd5b5061032c610a94565b6040516103399190614130565b60405180910390f35b61035c60048036038101906103579190614327565b610aa1565b005b34801561036a57600080fd5b50610373610b01565b604051610380919061454e565b60405180910390f35b34801561039557600080fd5b506103b060048036038101906103ab91906142e7565b610d8a565b6040516103bd9190614130565b60405180910390f35b3480156103d257600080fd5b506103db610e2f565b6040516103e89190614130565b60405180910390f35b61040b60048036038101906104069190614327565b610e35565b005b34801561041957600080fd5b50610422610e55565b60405161042f91906142a0565b60405180910390f35b34801561044457600080fd5b5061044d610e7b565b60405161045a919061454e565b60405180910390f35b34801561046f57600080fd5b5061048a60048036038101906104859190614232565b611211565b6040516104979190614130565b60405180910390f35b3480156104ac57600080fd5b506104c760048036038101906104c29190614232565b611282565b6040516104d4919061461a565b60405180910390f35b3480156104e957600080fd5b5061050460048036038101906104ff9190614232565b6114f4565b60405161051191906142a0565b60405180910390f35b34801561052657600080fd5b50610541600480360381019061053c919061463c565b6115a6565b60405161054e9190614130565b60405180910390f35b34801561056357600080fd5b5061056c61165e565b005b34801561057a57600080fd5b50610583611672565b6040516105909190614130565b60405180910390f35b6105b360048036038101906105ae919061479e565b611678565b005b3480156105c157600080fd5b506105ca611a4b565b6040516105d791906142a0565b60405180910390f35b3480156105ec57600080fd5b506105f5611a75565b60405161060291906141e4565b60405180910390f35b61062560048036038101906106209190614232565b611b07565b005b34801561063357600080fd5b5061064e60048036038101906106499190614885565b61215c565b005b34801561065c57600080fd5b50610677600480360381019061067291906148c5565b612172565b60405161068491906140fc565b60405180910390f35b6106a760048036038101906106a291906149a6565b6122b5565b005b3480156106b557600080fd5b506106be612317565b6040516106cb919061454e565b60405180910390f35b3480156106e057600080fd5b506106fb60048036038101906106f69190614232565b612749565b60405161070891906141e4565b60405180910390f35b34801561071d57600080fd5b5061073860048036038101906107339190614232565b6127f0565b60405161074591906142a0565b60405180910390f35b34801561075a57600080fd5b50610763612823565b604051610770919061454e565b60405180910390f35b34801561078557600080fd5b506107a0600480360381019061079b9190614a29565b612aac565b6040516107ad91906140fc565b60405180910390f35b3480156107c257600080fd5b506107dd60048036038101906107d8919061463c565b612b40565b005b60007f780e9d63000000000000000000000000000000000000000000000000000000007bffffffffffffffffffffffffffffffffffffffffffffffffffffffff1916827bffffffffffffffffffffffffffffffffffffffffffffffffffffffff19161480610852575061085182612bc4565b5b9050919050565b600f5481565b60606000805461086e90614a98565b80601f016020809104026020016040519081016040528092919081815260200182805461089a90614a98565b80156108e75780601f106108bc576101008083540402835291602001916108e7565b820191906000526020600020905b8154815290600101906020018083116108ca57829003601f168201915b5050505050905090565b60006108fc82612ca6565b61093b576040517f08c379a000000000000000000000000000000000000000000000000000000000815260040161093290614b3c565b60405180910390fd5b6004600083815260200190815260200160002060009054906101000a900473ffffffffffffffffffffffffffffffffffffffff169050919050565b6000610981826114f4565b90508073ffffffffffffffffffffffffffffffffffffffff168373ffffffffffffffffffffffffffffffffffffffff1614156109f2576040517f08c379a00000000000000000000000000000000000000000000000000000000081526004016109e990614bce565b60405180910390fd5b8073ffffffffffffffffffffffffffffffffffffffff16610a11612d12565b73ffffffffffffffffffffffffffffffffffffffff161480610a405750610a3f81610a3a612d12565b612aac565b5b610a7f576040517f08c379a0000000000000000000000000000000000000000000000000000000008152600401610a7690614c60565b60405180910390fd5b610a898383612d1a565b505050565b60115481565b6000600880549050905090565b610ab2610aac612d12565b82612dd3565b610af1576040517f08c379a0000000000000000000000000000000000000000000000000000000008152600401610ae890614cf2565b60405180910390fd5b610afc838383612eb1565b505050565b60606012805480602002602001604051908101604052809291908181526020016000905b82821015610d8157838290600052602060002090600702016040518060e0016040529081600082015481526020016001820160009054906101000a900473ffffffffffffffffffffffffffffffffffffffff1673ffffffffffffffffffffffffffffffffffffffff1673ffffffffffffffffffffffffffffffffffffffff16815260200160028201548152602001600382018054610bc290614a98565b80601f0160208091040260200160405190810160405280929190818152602001828054610bee90614a98565b8015610c3b5780601f10610c1057610100808354040283529160200191610c3b565b820191906000526020600020905b815481529060010190602001808311610c1e57829003601f168201915b50505050508152602001600482018054610c5490614a98565b80601f0160208091040260200160405190810160405280929190818152602001828054610c8090614a98565b8015610ccd5780601f10610ca257610100808354040283529160200191610ccd565b820191906000526020600020905b815481529060010190602001808311610cb057829003601f168201915b50505050508152602001600582018054610ce690614a98565b80601f0160208091040260200160405190810160405280929190818152602001828054610d1290614a98565b8015610d5f5780601f10610d3457610100808354040283529160200191610d5f565b820191906000526020600020905b815481529060010190602001808311610d4257829003601f168201915b5050505050815260200160068201548152505081526020019060010190610b25565b50505050905090565b6000610d95836115a6565b8210610dd6576040517f08c379a0000000000000000000000000000000000000000000000000000000008152600401610dcd90614d84565b60405180910390fd5b600660008473ffffffffffffffffffffffffffffffffffffffff1673ffffffffffffffffffffffffffffffffffffffff168152602001908152602001600020600083815260200190815260200160002054905092915050565b600e5481565b610e50838383604051806020016040528060008152506122b5565b505050565b600d60009054906101000a900473ffffffffffffffffffffffffffffffffffffffff1681565b60606000610e88336115a6565b905060008167ffffffffffffffff811115610ea657610ea5614673565b5b604051908082528060200260200182016040528015610edf57816020015b610ecc613f52565b815260200190600190039081610ec45790505b5090506000805b83811015611207576000610efa3383610d8a565b90503373ffffffffffffffffffffffffffffffffffffffff16600c600083815260200190815260200160002060009054906101000a900473ffffffffffffffffffffffffffffffffffffffff1673ffffffffffffffffffffffffffffffffffffffff1614156111f3576013600182610f729190614dd3565b81548110610f8357610f82614e07565b5b90600052602060002090600702016040518060e0016040529081600082015481526020016001820160009054906101000a900473ffffffffffffffffffffffffffffffffffffffff1673ffffffffffffffffffffffffffffffffffffffff1673ffffffffffffffffffffffffffffffffffffffff1681526020016002820154815260200160038201805461101690614a98565b80601f016020809104026020016040519081016040528092919081815260200182805461104290614a98565b801561108f5780601f106110645761010080835404028352916020019161108f565b820191906000526020600020905b81548152906001019060200180831161107257829003601f168201915b505050505081526020016004820180546110a890614a98565b80601f01602080910402602001604051908101604052809291908181526020018280546110d490614a98565b80156111215780601f106110f657610100808354040283529160200191611121565b820191906000526020600020905b81548152906001019060200180831161110457829003601f168201915b5050505050815260200160058201805461113a90614a98565b80601f016020809104026020016040519081016040528092919081815260200182805461116690614a98565b80156111b35780601f10611188576101008083540402835291602001916111b3565b820191906000526020600020905b81548152906001019060200180831161119657829003601f168201915b505050505081526020016006820154815250508484815181106111d9576111d8614e07565b5b602002602001018190525082806111ef90614e36565b9350505b5080806111ff90614e36565b915050610ee6565b5081935050505090565b600061121b610a94565b821061125c576040517f08c379a000000000000000000000000000000000000000000000000000000000815260040161125390614ef1565b60405180910390fd5b600882815481106112705761126f614e07565b5b90600052602060002001549050919050565b61128a613f52565b60136001836112999190614dd3565b815481106112aa576112a9614e07565b5b90600052602060002090600702016040518060e0016040529081600082015481526020016001820160009054906101000a900473ffffffffffffffffffffffffffffffffffffffff1673ffffffffffffffffffffffffffffffffffffffff1673ffffffffffffffffffffffffffffffffffffffff1681526020016002820154815260200160038201805461133d90614a98565b80601f016020809104026020016040519081016040528092919081815260200182805461136990614a98565b80156113b65780601f1061138b576101008083540402835291602001916113b6565b820191906000526020600020905b81548152906001019060200180831161139957829003601f168201915b505050505081526020016004820180546113cf90614a98565b80601f01602080910402602001604051908101604052809291908181526020018280546113fb90614a98565b80156114485780601f1061141d57610100808354040283529160200191611448565b820191906000526020600020905b81548152906001019060200180831161142b57829003601f168201915b5050505050815260200160058201805461146190614a98565b80601f016020809104026020016040519081016040528092919081815260200182805461148d90614a98565b80156114da5780601f106114af576101008083540402835291602001916114da565b820191906000526020600020905b8154815290600101906020018083116114bd57829003601f168201915b505050505081526020016006820154815250509050919050565b6000806002600084815260200190815260200160002060009054906101000a900473ffffffffffffffffffffffffffffffffffffffff169050600073ffffffffffffffffffffffffffffffffffffffff168173ffffffffffffffffffffffffffffffffffffffff16141561159d576040517f08c379a000000000000000000000000000000000000000000000000000000000815260040161159490614f83565b60405180910390fd5b80915050919050565b60008073ffffffffffffffffffffffffffffffffffffffff168273ffffffffffffffffffffffffffffffffffffffff161415611617576040517f08c379a000000000000000000000000000000000000000000000000000000000815260040161160e90615015565b60405180910390fd5b600360008373ffffffffffffffffffffffffffffffffffffffff1673ffffffffffffffffffffffffffffffffffffffff168152602001908152602001600020549050919050565b61166661310d565b611670600061318b565b565b60105481565b6011543410156116bd576040517f08c379a00000000000000000000000000000000000000000000000000000000081526004016116b490615081565b60405180910390fd5b6000600b836040516116cf91906150dd565b908152602001604051809103902060009054906101000a900460ff1660ff161461172e576040517f08c379a000000000000000000000000000000000000000000000000000000000815260040161172590615140565b60405180910390fd5b611736611a4b565b73ffffffffffffffffffffffffffffffffffffffff163373ffffffffffffffffffffffffffffffffffffffff1614156117a4576040517f08c379a000000000000000000000000000000000000000000000000000000000815260040161179b906151ac565b60405180910390fd5b60006064600e54346117b691906151cc565b6117c09190615255565b90506117ee600d60009054906101000a900473ffffffffffffffffffffffffffffffffffffffff1682613251565b61180a6117f9611a4b565b82346118059190614dd3565b613251565b600f600081548092919061181d90614e36565b919050555060136040518060e00160405280600f5481526020013373ffffffffffffffffffffffffffffffffffffffff1681526020018481526020018781526020018681526020018581526020014281525090806001815401808255809150506001900390600052602060002090600702016000909190919091506000820151816000015560208201518160010160006101000a81548173ffffffffffffffffffffffffffffffffffffffff021916908373ffffffffffffffffffffffffffffffffffffffff16021790555060408201518160020155606082015181600301908051906020019061190f929190613fa5565b50608082015181600401908051906020019061192c929190613fa5565b5060a0820151816005019080519060200190611949929190613fa5565b5060c0820151816006015550503373ffffffffffffffffffffffffffffffffffffffff167fb9508407a6eccb191d8da3286f4173697cf95604e9ea192fe5ab7c862b5221f6600f543486426040516119a49493929190615286565b60405180910390a26119b833600f546132cc565b6001600b846040516119ca91906150dd565b908152602001604051809103902060006101000a81548160ff021916908360ff16021790555033600c6000600f54815260200190815260200160002060006101000a81548173ffffffffffffffffffffffffffffffffffffffff021916908373ffffffffffffffffffffffffffffffffffffffff1602179055505050505050565b6000600a60009054906101000a900473ffffffffffffffffffffffffffffffffffffffff16905090565b606060018054611a8490614a98565b80601f0160208091040260200160405190810160405280929190818152602001828054611ab090614a98565b8015611afd5780601f10611ad257610100808354040283529160200191611afd565b820191906000526020600020905b815481529060010190602001808311611ae057829003601f168201915b5050505050905090565b6013600182611b169190614dd3565b81548110611b2757611b26614e07565b5b906000526020600020906007020160020154341015611b7b576040517f08c379a0000000000000000000000000000000000000000000000000000000008152600401611b729061531e565b60405180910390fd5b6013600182611b8a9190614dd3565b81548110611b9b57611b9a614e07565b5b906000526020600020906007020160010160009054906101000a900473ffffffffffffffffffffffffffffffffffffffff1673ffffffffffffffffffffffffffffffffffffffff163373ffffffffffffffffffffffffffffffffffffffff161415611c3b576040517f08c379a0000000000000000000000000000000000000000000000000000000008152600401611c329061538a565b60405180910390fd5b60006064600e5434611c4d91906151cc565b611c579190615255565b9050611c85600d60009054906101000a900473ffffffffffffffffffffffffffffffffffffffff1682613251565b611ceb6013600184611c979190614dd3565b81548110611ca857611ca7614e07565b5b906000526020600020906007020160010160009054906101000a900473ffffffffffffffffffffffffffffffffffffffff168234611ce69190614dd3565b613251565b60106000815480929190611cfe90614e36565b919050555060126040518060e0016040528060105481526020013373ffffffffffffffffffffffffffffffffffffffff1681526020013481526020016013600186611d499190614dd3565b81548110611d5a57611d59614e07565b5b90600052602060002090600702016003018054611d7690614a98565b80601f0160208091040260200160405190810160405280929190818152602001828054611da290614a98565b8015611def5780601f10611dc457610100808354040283529160200191611def565b820191906000526020600020905b815481529060010190602001808311611dd257829003601f168201915b505050505081526020016013600186611e089190614dd3565b81548110611e1957611e18614e07565b5b90600052602060002090600702016004018054611e3590614a98565b80601f0160208091040260200160405190810160405280929190818152602001828054611e6190614a98565b8015611eae5780601f10611e8357610100808354040283529160200191611eae565b820191906000526020600020905b815481529060010190602001808311611e9157829003601f168201915b505050505081526020016013600186611ec79190614dd3565b81548110611ed857611ed7614e07565b5b90600052602060002090600702016005018054611ef490614a98565b80601f0160208091040260200160405190810160405280929190818152602001828054611f2090614a98565b8015611f6d5780601f10611f4257610100808354040283529160200191611f6d565b820191906000526020600020905b815481529060010190602001808311611f5057829003601f168201915b505050505081526020014281525090806001815401808255809150506001900390600052602060002090600702016000909190919091506000820151816000015560208201518160010160006101000a81548173ffffffffffffffffffffffffffffffffffffffff021916908373ffffffffffffffffffffffffffffffffffffffff16021790555060408201518160020155606082015181600301908051906020019061201b929190613fa5565b506080820151816004019080519060200190612038929190613fa5565b5060a0820151816005019080519060200190612055929190613fa5565b5060c0820151816006015550503373ffffffffffffffffffffffffffffffffffffffff167fb9508407a6eccb191d8da3286f4173697cf95604e9ea192fe5ab7c862b5221f66010543460136001876120ad9190614dd3565b815481106120be576120bd614e07565b5b9060005260206000209060070201600501426040516120e0949392919061543f565b60405180910390a23360136001846120f89190614dd3565b8154811061210957612108614e07565b5b906000526020600020906007020160010160006101000a81548173ffffffffffffffffffffffffffffffffffffffff021916908373ffffffffffffffffffffffffffffffffffffffff1602179055505050565b61216e612167612d12565b83836132ea565b5050565b60008082116121b6576040517f08c379a00000000000000000000000000000000000000000000000000000000081526004016121ad906154d7565b60405180910390fd5b60136001846121c59190614dd3565b815481106121d6576121d5614e07565b5b906000526020600020906007020160010160009054906101000a900473ffffffffffffffffffffffffffffffffffffffff1673ffffffffffffffffffffffffffffffffffffffff163373ffffffffffffffffffffffffffffffffffffffff1614612275576040517f08c379a000000000000000000000000000000000000000000000000000000000815260040161226c9061538a565b60405180910390fd5b8160136001856122859190614dd3565b8154811061229657612295614e07565b5b9060005260206000209060070201600201819055506001905092915050565b6122c66122c0612d12565b83612dd3565b612305576040517f08c379a00000000000000000000000000000000000000000000000000000000081526004016122fc90614cf2565b60405180910390fd5b61231184848484613457565b50505050565b60606000805b6012805490508110156123c5573373ffffffffffffffffffffffffffffffffffffffff166012828154811061235557612354614e07565b5b906000526020600020906007020160010160009054906101000a900473ffffffffffffffffffffffffffffffffffffffff1673ffffffffffffffffffffffffffffffffffffffff1614156123b25781806123ae90614e36565b9250505b80806123bd90614e36565b91505061231d565b5060008167ffffffffffffffff8111156123e2576123e1614673565b5b60405190808252806020026020018201604052801561241b57816020015b612408613f52565b8152602001906001900390816124005790505b5090506000805b60128054905081101561273f573373ffffffffffffffffffffffffffffffffffffffff166012828154811061245a57612459614e07565b5b906000526020600020906007020160010160009054906101000a900473ffffffffffffffffffffffffffffffffffffffff1673ffffffffffffffffffffffffffffffffffffffff16141561272c57601281815481106124bc576124bb614e07565b5b90600052602060002090600702016040518060e0016040529081600082015481526020016001820160009054906101000a900473ffffffffffffffffffffffffffffffffffffffff1673ffffffffffffffffffffffffffffffffffffffff1673ffffffffffffffffffffffffffffffffffffffff1681526020016002820154815260200160038201805461254f90614a98565b80601f016020809104026020016040519081016040528092919081815260200182805461257b90614a98565b80156125c85780601f1061259d576101008083540402835291602001916125c8565b820191906000526020600020905b8154815290600101906020018083116125ab57829003601f168201915b505050505081526020016004820180546125e190614a98565b80601f016020809104026020016040519081016040528092919081815260200182805461260d90614a98565b801561265a5780601f1061262f5761010080835404028352916020019161265a565b820191906000526020600020905b81548152906001019060200180831161263d57829003601f168201915b5050505050815260200160058201805461267390614a98565b80601f016020809104026020016040519081016040528092919081815260200182805461269f90614a98565b80156126ec5780601f106126c1576101008083540402835291602001916126ec565b820191906000526020600020905b8154815290600101906020018083116126cf57829003601f168201915b5050505050815260200160068201548152505083838151811061271257612711614e07565b5b6020026020010181905250818061272890614e36565b9250505b808061273790614e36565b915050612422565b5081935050505090565b606061275482612ca6565b612793576040517f08c379a000000000000000000000000000000000000000000000000000000000815260040161278a90615569565b60405180910390fd5b600061279d6134b3565b905060008151116127bd57604051806020016040528060008152506127e8565b806127c7846134ca565b6040516020016127d8929190615589565b6040516020818303038152906040525b915050919050565b600c6020528060005260406000206000915054906101000a900473ffffffffffffffffffffffffffffffffffffffff1681565b60606013805480602002602001604051908101604052809291908181526020016000905b82821015612aa357838290600052602060002090600702016040518060e0016040529081600082015481526020016001820160009054906101000a900473ffffffffffffffffffffffffffffffffffffffff1673ffffffffffffffffffffffffffffffffffffffff1673ffffffffffffffffffffffffffffffffffffffff168152602001600282015481526020016003820180546128e490614a98565b80601f016020809104026020016040519081016040528092919081815260200182805461291090614a98565b801561295d5780601f106129325761010080835404028352916020019161295d565b820191906000526020600020905b81548152906001019060200180831161294057829003601f168201915b5050505050815260200160048201805461297690614a98565b80601f01602080910402602001604051908101604052809291908181526020018280546129a290614a98565b80156129ef5780601f106129c4576101008083540402835291602001916129ef565b820191906000526020600020905b8154815290600101906020018083116129d257829003601f168201915b50505050508152602001600582018054612a0890614a98565b80601f0160208091040260200160405190810160405280929190818152602001828054612a3490614a98565b8015612a815780601f10612a5657610100808354040283529160200191612a81565b820191906000526020600020905b815481529060010190602001808311612a6457829003601f168201915b5050505050815260200160068201548152505081526020019060010190612847565b50505050905090565b6000600560008473ffffffffffffffffffffffffffffffffffffffff1673ffffffffffffffffffffffffffffffffffffffff16815260200190815260200160002060008373ffffffffffffffffffffffffffffffffffffffff1673ffffffffffffffffffffffffffffffffffffffff16815260200190815260200160002060009054906101000a900460ff16905092915050565b612b4861310d565b600073ffffffffffffffffffffffffffffffffffffffff168173ffffffffffffffffffffffffffffffffffffffff161415612bb8576040517f08c379a0000000000000000000000000000000000000000000000000000000008152600401612baf9061561f565b60405180910390fd5b612bc18161318b565b50565b60007f80ac58cd000000000000000000000000000000000000000000000000000000007bffffffffffffffffffffffffffffffffffffffffffffffffffffffff1916827bffffffffffffffffffffffffffffffffffffffffffffffffffffffff19161480612c8f57507f5b5e139f000000000000000000000000000000000000000000000000000000007bffffffffffffffffffffffffffffffffffffffffffffffffffffffff1916827bffffffffffffffffffffffffffffffffffffffffffffffffffffffff1916145b80612c9f5750612c9e826135a2565b5b9050919050565b60008073ffffffffffffffffffffffffffffffffffffffff166002600084815260200190815260200160002060009054906101000a900473ffffffffffffffffffffffffffffffffffffffff1673ffffffffffffffffffffffffffffffffffffffff1614159050919050565b600033905090565b816004600083815260200190815260200160002060006101000a81548173ffffffffffffffffffffffffffffffffffffffff021916908373ffffffffffffffffffffffffffffffffffffffff160217905550808273ffffffffffffffffffffffffffffffffffffffff16612d8d836114f4565b73ffffffffffffffffffffffffffffffffffffffff167f8c5be1e5ebec7d5bd14f71427d1e84f3dd0314c0f7b2291e5b200ac8c7c3b92560405160405180910390a45050565b6000612dde82612ca6565b612e1d576040517f08c379a0000000000000000000000000000000000000000000000000000000008152600401612e14906156b1565b60405180910390fd5b6000612e28836114f4565b90508073ffffffffffffffffffffffffffffffffffffffff168473ffffffffffffffffffffffffffffffffffffffff161480612e9757508373ffffffffffffffffffffffffffffffffffffffff16612e7f846108f1565b73ffffffffffffffffffffffffffffffffffffffff16145b80612ea85750612ea78185612aac565b5b91505092915050565b8273ffffffffffffffffffffffffffffffffffffffff16612ed1826114f4565b73ffffffffffffffffffffffffffffffffffffffff1614612f27576040517f08c379a0000000000000000000000000000000000000000000000000000000008152600401612f1e90615743565b60405180910390fd5b600073ffffffffffffffffffffffffffffffffffffffff168273ffffffffffffffffffffffffffffffffffffffff161415612f97576040517f08c379a0000000000000000000000000000000000000000000000000000000008152600401612f8e906157d5565b60405180910390fd5b612fa283838361360c565b612fad600082612d1a565b6001600360008573ffffffffffffffffffffffffffffffffffffffff1673ffffffffffffffffffffffffffffffffffffffff1681526020019081526020016000206000828254612ffd9190614dd3565b925050819055506001600360008473ffffffffffffffffffffffffffffffffffffffff1673ffffffffffffffffffffffffffffffffffffffff168152602001908152602001600020600082825461305491906157f5565b92505081905550816002600083815260200190815260200160002060006101000a81548173ffffffffffffffffffffffffffffffffffffffff021916908373ffffffffffffffffffffffffffffffffffffffff160217905550808273ffffffffffffffffffffffffffffffffffffffff168473ffffffffffffffffffffffffffffffffffffffff167fddf252ad1be2c89b69c2b068fc378daa952ba7f163c4a11628f55a4df523b3ef60405160405180910390a4505050565b613115612d12565b73ffffffffffffffffffffffffffffffffffffffff16613133611a4b565b73ffffffffffffffffffffffffffffffffffffffff1614613189576040517f08c379a000000000000000000000000000000000000000000000000000000000815260040161318090615897565b60405180910390fd5b565b6000600a60009054906101000a900473ffffffffffffffffffffffffffffffffffffffff16905081600a60006101000a81548173ffffffffffffffffffffffffffffffffffffffff021916908373ffffffffffffffffffffffffffffffffffffffff1602179055508173ffffffffffffffffffffffffffffffffffffffff168173ffffffffffffffffffffffffffffffffffffffff167f8be0079c531659141344cd1fd0a4f28419497f9722a3daafe3b4186f6b6457e060405160405180910390a35050565b60008273ffffffffffffffffffffffffffffffffffffffff1682604051613277906158e8565b60006040518083038185875af1925050503d80600081146132b4576040519150601f19603f3d011682016040523d82523d6000602084013e6132b9565b606091505b50509050806132c757600080fd5b505050565b6132e6828260405180602001604052806000815250613720565b5050565b8173ffffffffffffffffffffffffffffffffffffffff168373ffffffffffffffffffffffffffffffffffffffff161415613359576040517f08c379a000000000000000000000000000000000000000000000000000000000815260040161335090615949565b60405180910390fd5b80600560008573ffffffffffffffffffffffffffffffffffffffff1673ffffffffffffffffffffffffffffffffffffffff16815260200190815260200160002060008473ffffffffffffffffffffffffffffffffffffffff1673ffffffffffffffffffffffffffffffffffffffff16815260200190815260200160002060006101000a81548160ff0219169083151502179055508173ffffffffffffffffffffffffffffffffffffffff168373ffffffffffffffffffffffffffffffffffffffff167f17307eab39ab6107e8899845ad3d59bd9653f200f220920489ca2b5937696c318360405161344a91906140fc565b60405180910390a3505050565b613462848484612eb1565b61346e8484848461377b565b6134ad576040517f08c379a00000000000000000000000000000000000000000000000000000000081526004016134a4906159db565b60405180910390fd5b50505050565b606060405180602001604052806000815250905090565b6060600060016134d984613903565b01905060008167ffffffffffffffff8111156134f8576134f7614673565b5b6040519080825280601f01601f19166020018201604052801561352a5781602001600182028036833780820191505090505b509050600082602001820190505b600115613597578080600190039150507f3031323334353637383961626364656600000000000000000000000000000000600a86061a8153600a858161358157613580615226565b5b049450600085141561359257613597565b613538565b819350505050919050565b60007f01ffc9a7000000000000000000000000000000000000000000000000000000007bffffffffffffffffffffffffffffffffffffffffffffffffffffffff1916827bffffffffffffffffffffffffffffffffffffffffffffffffffffffff1916149050919050565b613617838383613a56565b600073ffffffffffffffffffffffffffffffffffffffff168373ffffffffffffffffffffffffffffffffffffffff16141561365a5761365581613a5b565b613699565b8173ffffffffffffffffffffffffffffffffffffffff168373ffffffffffffffffffffffffffffffffffffffff1614613698576136978382613aa4565b5b5b600073ffffffffffffffffffffffffffffffffffffffff168273ffffffffffffffffffffffffffffffffffffffff1614156136dc576136d781613c11565b61371b565b8273ffffffffffffffffffffffffffffffffffffffff168273ffffffffffffffffffffffffffffffffffffffff161461371a576137198282613ce2565b5b5b505050565b61372a8383613d61565b613737600084848461377b565b613776576040517f08c379a000000000000000000000000000000000000000000000000000000000815260040161376d906159db565b60405180910390fd5b505050565b600061379c8473ffffffffffffffffffffffffffffffffffffffff16613f2f565b156138f6578373ffffffffffffffffffffffffffffffffffffffff1663150b7a026137c5612d12565b8786866040518563ffffffff1660e01b81526004016137e79493929190615a50565b6020604051808303816000875af192505050801561382357506040513d601f19601f820116820180604052508101906138209190615ab1565b60015b6138a6573d8060008114613853576040519150601f19603f3d011682016040523d82523d6000602084013e613858565b606091505b5060008151141561389e576040517f08c379a0000000000000000000000000000000000000000000000000000000008152600401613895906159db565b60405180910390fd5b805181602001fd5b63150b7a0260e01b7bffffffffffffffffffffffffffffffffffffffffffffffffffffffff1916817bffffffffffffffffffffffffffffffffffffffffffffffffffffffff1916149150506138fb565b600190505b949350505050565b600080600090507a184f03e93ff9f4daa797ed6e38ed64bf6a1f0100000000000000008310613961577a184f03e93ff9f4daa797ed6e38ed64bf6a1f010000000000000000838161395757613956615226565b5b0492506040810190505b6d04ee2d6d415b85acef8100000000831061399e576d04ee2d6d415b85acef8100000000838161399457613993615226565b5b0492506020810190505b662386f26fc1000083106139cd57662386f26fc1000083816139c3576139c2615226565b5b0492506010810190505b6305f5e10083106139f6576305f5e10083816139ec576139eb615226565b5b0492506008810190505b6127108310613a1b576127108381613a1157613a10615226565b5b0492506004810190505b60648310613a3e5760648381613a3457613a33615226565b5b0492506002810190505b600a8310613a4d576001810190505b80915050919050565b505050565b6008805490506009600083815260200190815260200160002081905550600881908060018154018082558091505060019003906000526020600020016000909190919091505550565b60006001613ab1846115a6565b613abb9190614dd3565b9050600060076000848152602001908152602001600020549050818114613ba0576000600660008673ffffffffffffffffffffffffffffffffffffffff1673ffffffffffffffffffffffffffffffffffffffff168152602001908152602001600020600084815260200190815260200160002054905080600660008773ffffffffffffffffffffffffffffffffffffffff1673ffffffffffffffffffffffffffffffffffffffff168152602001908152602001600020600084815260200190815260200160002081905550816007600083815260200190815260200160002081905550505b6007600084815260200190815260200160002060009055600660008573ffffffffffffffffffffffffffffffffffffffff1673ffffffffffffffffffffffffffffffffffffffff16815260200190815260200160002060008381526020019081526020016000206000905550505050565b60006001600880549050613c259190614dd3565b9050600060096000848152602001908152602001600020549050600060088381548110613c5557613c54614e07565b5b906000526020600020015490508060088381548110613c7757613c76614e07565b5b906000526020600020018190555081600960008381526020019081526020016000208190555060096000858152602001908152602001600020600090556008805480613cc657613cc5615ade565b5b6001900381819060005260206000200160009055905550505050565b6000613ced836115a6565b905081600660008573ffffffffffffffffffffffffffffffffffffffff1673ffffffffffffffffffffffffffffffffffffffff168152602001908152602001600020600083815260200190815260200160002081905550806007600084815260200190815260200160002081905550505050565b600073ffffffffffffffffffffffffffffffffffffffff168273ffffffffffffffffffffffffffffffffffffffff161415613dd1576040517f08c379a0000000000000000000000000000000000000000000000000000000008152600401613dc890615b59565b60405180910390fd5b613dda81612ca6565b15613e1a576040517f08c379a0000000000000000000000000000000000000000000000000000000008152600401613e1190615bc5565b60405180910390fd5b613e266000838361360c565b6001600360008473ffffffffffffffffffffffffffffffffffffffff1673ffffffffffffffffffffffffffffffffffffffff1681526020019081526020016000206000828254613e7691906157f5565b92505081905550816002600083815260200190815260200160002060006101000a81548173ffffffffffffffffffffffffffffffffffffffff021916908373ffffffffffffffffffffffffffffffffffffffff160217905550808273ffffffffffffffffffffffffffffffffffffffff16600073ffffffffffffffffffffffffffffffffffffffff167fddf252ad1be2c89b69c2b068fc378daa952ba7f163c4a11628f55a4df523b3ef60405160405180910390a45050565b6000808273ffffffffffffffffffffffffffffffffffffffff163b119050919050565b6040518060e0016040528060008152602001600073ffffffffffffffffffffffffffffffffffffffff16815260200160008152602001606081526020016060815260200160608152602001600081525090565b828054613fb190614a98565b90600052602060002090601f016020900481019282613fd3576000855561401a565b82601f10613fec57805160ff191683800117855561401a565b8280016001018555821561401a579182015b82811115614019578251825591602001919060010190613ffe565b5b509050614027919061402b565b5090565b5b8082111561404457600081600090555060010161402c565b5090565b6000604051905090565b600080fd5b600080fd5b60007fffffffff0000000000000000000000000000000000000000000000000000000082169050919050565b6140918161405c565b811461409c57600080fd5b50565b6000813590506140ae81614088565b92915050565b6000602082840312156140ca576140c9614052565b5b60006140d88482850161409f565b91505092915050565b60008115159050919050565b6140f6816140e1565b82525050565b600060208201905061411160008301846140ed565b92915050565b6000819050919050565b61412a81614117565b82525050565b60006020820190506141456000830184614121565b92915050565b600081519050919050565b600082825260208201905092915050565b60005b8381101561418557808201518184015260208101905061416a565b83811115614194576000848401525b50505050565b6000601f19601f8301169050919050565b60006141b68261414b565b6141c08185614156565b93506141d0818560208601614167565b6141d98161419a565b840191505092915050565b600060208201905081810360008301526141fe81846141ab565b905092915050565b61420f81614117565b811461421a57600080fd5b50565b60008135905061422c81614206565b92915050565b60006020828403121561424857614247614052565b5b60006142568482850161421d565b91505092915050565b600073ffffffffffffffffffffffffffffffffffffffff82169050919050565b600061428a8261425f565b9050919050565b61429a8161427f565b82525050565b60006020820190506142b56000830184614291565b92915050565b6142c48161427f565b81146142cf57600080fd5b50565b6000813590506142e1816142bb565b92915050565b600080604083850312156142fe576142fd614052565b5b600061430c858286016142d2565b925050602061431d8582860161421d565b9150509250929050565b6000806000606084860312156143405761433f614052565b5b600061434e868287016142d2565b935050602061435f868287016142d2565b92505060406143708682870161421d565b9150509250925092565b600081519050919050565b600082825260208201905092915050565b6000819050602082019050919050565b6143af81614117565b82525050565b6143be8161427f565b82525050565b600082825260208201905092915050565b60006143e08261414b565b6143ea81856143c4565b93506143fa818560208601614167565b6144038161419a565b840191505092915050565b600060e08301600083015161442660008601826143a6565b50602083015161443960208601826143b5565b50604083015161444c60408601826143a6565b506060830151848203606086015261446482826143d5565b9150506080830151848203608086015261447e82826143d5565b91505060a083015184820360a086015261449882826143d5565b91505060c08301516144ad60c08601826143a6565b508091505092915050565b60006144c4838361440e565b905092915050565b6000602082019050919050565b60006144e48261437a565b6144ee8185614385565b93508360208202850161450085614396565b8060005b8581101561453c578484038952815161451d85826144b8565b9450614528836144cc565b925060208a01995050600181019050614504565b50829750879550505050505092915050565b6000602082019050818103600083015261456881846144d9565b905092915050565b600060e08301600083015161458860008601826143a6565b50602083015161459b60208601826143b5565b5060408301516145ae60408601826143a6565b50606083015184820360608601526145c682826143d5565b915050608083015184820360808601526145e082826143d5565b91505060a083015184820360a08601526145fa82826143d5565b91505060c083015161460f60c08601826143a6565b508091505092915050565b600060208201905081810360008301526146348184614570565b905092915050565b60006020828403121561465257614651614052565b5b6000614660848285016142d2565b91505092915050565b600080fd5b600080fd5b7f4e487b7100000000000000000000000000000000000000000000000000000000600052604160045260246000fd5b6146ab8261419a565b810181811067ffffffffffffffff821117156146ca576146c9614673565b5b80604052505050565b60006146dd614048565b90506146e982826146a2565b919050565b600067ffffffffffffffff82111561470957614708614673565b5b6147128261419a565b9050602081019050919050565b82818337600083830152505050565b600061474161473c846146ee565b6146d3565b90508281526020810184848401111561475d5761475c61466e565b5b61476884828561471f565b509392505050565b600082601f83011261478557614784614669565b5b813561479584826020860161472e565b91505092915050565b600080600080608085870312156147b8576147b7614052565b5b600085013567ffffffffffffffff8111156147d6576147d5614057565b5b6147e287828801614770565b945050602085013567ffffffffffffffff81111561480357614802614057565b5b61480f87828801614770565b935050604085013567ffffffffffffffff8111156148305761482f614057565b5b61483c87828801614770565b925050606061484d8782880161421d565b91505092959194509250565b614862816140e1565b811461486d57600080fd5b50565b60008135905061487f81614859565b92915050565b6000806040838503121561489c5761489b614052565b5b60006148aa858286016142d2565b92505060206148bb85828601614870565b9150509250929050565b600080604083850312156148dc576148db614052565b5b60006148ea8582860161421d565b92505060206148fb8582860161421d565b9150509250929050565b600067ffffffffffffffff8211156149205761491f614673565b5b6149298261419a565b9050602081019050919050565b600061494961494484614905565b6146d3565b9050828152602081018484840111156149655761496461466e565b5b61497084828561471f565b509392505050565b600082601f83011261498d5761498c614669565b5b813561499d848260208601614936565b91505092915050565b600080600080608085870312156149c0576149bf614052565b5b60006149ce878288016142d2565b94505060206149df878288016142d2565b93505060406149f08782880161421d565b925050606085013567ffffffffffffffff811115614a1157614a10614057565b5b614a1d87828801614978565b91505092959194509250565b60008060408385031215614a4057614a3f614052565b5b6000614a4e858286016142d2565b9250506020614a5f858286016142d2565b9150509250929050565b7f4e487b7100000000000000000000000000000000000000000000000000000000600052602260045260246000fd5b60006002820490506001821680614ab057607f821691505b60208210811415614ac457614ac3614a69565b5b50919050565b7f4552433732313a20617070726f76656420717565727920666f72206e6f6e657860008201527f697374656e7420746f6b656e0000000000000000000000000000000000000000602082015250565b6000614b26602c83614156565b9150614b3182614aca565b604082019050919050565b60006020820190508181036000830152614b5581614b19565b9050919050565b7f4552433732313a20617070726f76616c20746f2063757272656e74206f776e6560008201527f7200000000000000000000000000000000000000000000000000000000000000602082015250565b6000614bb8602183614156565b9150614bc382614b5c565b604082019050919050565b60006020820190508181036000830152614be781614bab565b9050919050565b7f4552433732313a20617070726f76652063616c6c6572206973206e6f74206f7760008201527f6e6572206e6f7220617070726f76656420666f7220616c6c0000000000000000602082015250565b6000614c4a603883614156565b9150614c5582614bee565b604082019050919050565b60006020820190508181036000830152614c7981614c3d565b9050919050565b7f4552433732313a207472616e736665722063616c6c6572206973206e6f74206f60008201527f776e6572206e6f7220617070726f766564000000000000000000000000000000602082015250565b6000614cdc603183614156565b9150614ce782614c80565b604082019050919050565b60006020820190508181036000830152614d0b81614ccf565b9050919050565b7f455243373231456e756d657261626c653a206f776e657220696e646578206f7560008201527f74206f6620626f756e6473000000000000000000000000000000000000000000602082015250565b6000614d6e602b83614156565b9150614d7982614d12565b604082019050919050565b60006020820190508181036000830152614d9d81614d61565b9050919050565b7f4e487b7100000000000000000000000000000000000000000000000000000000600052601160045260246000fd5b6000614dde82614117565b9150614de983614117565b925082821015614dfc57614dfb614da4565b5b828203905092915050565b7f4e487b7100000000000000000000000000000000000000000000000000000000600052603260045260246000fd5b6000614e4182614117565b91507fffffffffffffffffffffffffffffffffffffffffffffffffffffffffffffffff821415614e7457614e73614da4565b5b600182019050919050565b7f455243373231456e756d657261626c653a20676c6f62616c20696e646578206f60008201527f7574206f6620626f756e64730000000000000000000000000000000000000000602082015250565b6000614edb602c83614156565b9150614ee682614e7f565b604082019050919050565b60006020820190508181036000830152614f0a81614ece565b9050919050565b7f4552433732313a206f776e657220717565727920666f72206e6f6e657869737460008201527f656e7420746f6b656e0000000000000000000000000000000000000000000000602082015250565b6000614f6d602983614156565b9150614f7882614f11565b604082019050919050565b60006020820190508181036000830152614f9c81614f60565b9050919050565b7f4552433732313a2062616c616e636520717565727920666f7220746865207a6560008201527f726f206164647265737300000000000000000000000000000000000000000000602082015250565b6000614fff602a83614156565b915061500a82614fa3565b604082019050919050565b6000602082019050818103600083015261502e81614ff2565b9050919050565b7f457468657220746f6f206c6f7720666f72206d696e74696e6721000000000000600082015250565b600061506b601a83614156565b915061507682615035565b602082019050919050565b6000602082019050818103600083015261509a8161505e565b9050919050565b600081905092915050565b60006150b78261414b565b6150c181856150a1565b93506150d1818560208601614167565b80840191505092915050565b60006150e982846150ac565b915081905092915050565b7f54686973204e465420697320616c7265616479206d696e746564210000000000600082015250565b600061512a601b83614156565b9150615135826150f4565b602082019050919050565b600060208201905081810360008301526151598161511d565b9050919050565b7f53616c6573206e6f7420616c6c6f776564210000000000000000000000000000600082015250565b6000615196601283614156565b91506151a182615160565b602082019050919050565b600060208201905081810360008301526151c581615189565b9050919050565b60006151d782614117565b91506151e283614117565b9250817fffffffffffffffffffffffffffffffffffffffffffffffffffffffffffffffff048311821515161561521b5761521a614da4565b5b828202905092915050565b7f4e487b7100000000000000000000000000000000000000000000000000000000600052601260045260246000fd5b600061526082614117565b915061526b83614117565b92508261527b5761527a615226565b5b828204905092915050565b600060808201905061529b6000830187614121565b6152a86020830186614121565b81810360408301526152ba81856141ab565b90506152c96060830184614121565b95945050505050565b7f457468657220746f6f206c6f7720666f72207075726368617365210000000000600082015250565b6000615308601b83614156565b9150615313826152d2565b602082019050919050565b60006020820190508181036000830152615337816152fb565b9050919050565b7f4f7065726174696f6e204e6f7420416c6c6f7765642100000000000000000000600082015250565b6000615374601683614156565b915061537f8261533e565b602082019050919050565b600060208201905081810360008301526153a381615367565b9050919050565b60008190508160005260206000209050919050565b600081546153cc81614a98565b6153d68186614156565b945060018216600081146153f1576001811461540357615436565b60ff1983168652602086019350615436565b61540c856153aa565b60005b8381101561542e5781548189015260018201915060208101905061540f565b808801955050505b50505092915050565b60006080820190506154546000830187614121565b6154616020830186614121565b818103604083015261547381856153bf565b90506154826060830184614121565b95945050505050565b7f457468657220746f6f206c6f7721000000000000000000000000000000000000600082015250565b60006154c1600e83614156565b91506154cc8261548b565b602082019050919050565b600060208201905081810360008301526154f0816154b4565b9050919050565b7f4552433732314d657461646174613a2055524920717565727920666f72206e6f60008201527f6e6578697374656e7420746f6b656e0000000000000000000000000000000000602082015250565b6000615553602f83614156565b915061555e826154f7565b604082019050919050565b6000602082019050818103600083015261558281615546565b9050919050565b600061559582856150ac565b91506155a182846150ac565b91508190509392505050565b7f4f776e61626c653a206e6577206f776e657220697320746865207a65726f206160008201527f6464726573730000000000000000000000000000000000000000000000000000602082015250565b6000615609602683614156565b9150615614826155ad565b604082019050919050565b60006020820190508181036000830152615638816155fc565b9050919050565b7f4552433732313a206f70657261746f7220717565727920666f72206e6f6e657860008201527f697374656e7420746f6b656e0000000000000000000000000000000000000000602082015250565b600061569b602c83614156565b91506156a68261563f565b604082019050919050565b600060208201905081810360008301526156ca8161568e565b9050919050565b7f4552433732313a207472616e73666572206f6620746f6b656e2074686174206960008201527f73206e6f74206f776e0000000000000000000000000000000000000000000000602082015250565b600061572d602983614156565b9150615738826156d1565b604082019050919050565b6000602082019050818103600083015261575c81615720565b9050919050565b7f4552433732313a207472616e7366657220746f20746865207a65726f2061646460008201527f7265737300000000000000000000000000000000000000000000000000000000602082015250565b60006157bf602483614156565b91506157ca82615763565b604082019050919050565b600060208201905081810360008301526157ee816157b2565b9050919050565b600061580082614117565b915061580b83614117565b9250827fffffffffffffffffffffffffffffffffffffffffffffffffffffffffffffffff038211156158405761583f614da4565b5b828201905092915050565b7f4f776e61626c653a2063616c6c6572206973206e6f7420746865206f776e6572600082015250565b6000615881602083614156565b915061588c8261584b565b602082019050919050565b600060208201905081810360008301526158b081615874565b9050919050565b600081905092915050565b50565b60006158d26000836158b7565b91506158dd826158c2565b600082019050919050565b60006158f3826158c5565b9150819050919050565b7f4552433732313a20617070726f766520746f2063616c6c657200000000000000600082015250565b6000615933601983614156565b915061593e826158fd565b602082019050919050565b6000602082019050818103600083015261596281615926565b9050919050565b7f4552433732313a207472616e7366657220746f206e6f6e20455243373231526560008201527f63656976657220696d706c656d656e7465720000000000000000000000000000602082015250565b60006159c5603283614156565b91506159d082615969565b604082019050919050565b600060208201905081810360008301526159f4816159b8565b9050919050565b600081519050919050565b600082825260208201905092915050565b6000615a22826159fb565b615a2c8185615a06565b9350615a3c818560208601614167565b615a458161419a565b840191505092915050565b6000608082019050615a656000830187614291565b615a726020830186614291565b615a7f6040830185614121565b8181036060830152615a918184615a17565b905095945050505050565b600081519050615aab81614088565b92915050565b600060208284031215615ac757615ac6614052565b5b6000615ad584828501615a9c565b91505092915050565b7f4e487b7100000000000000000000000000000000000000000000000000000000600052603160045260246000fd5b7f4552433732313a206d696e7420746f20746865207a65726f2061646472657373600082015250565b6000615b43602083614156565b9150615b4e82615b0d565b602082019050919050565b60006020820190508181036000830152615b7281615b36565b9050919050565b7f4552433732313a20746f6b656e20616c7265616479206d696e74656400000000600082015250565b6000615baf601c83614156565b9150615bba82615b79565b602082019050919050565b60006020820190508181036000830152615bde81615ba2565b905091905056fea2646970667358221220d359eae04dd589bc8dd13e3492daf3852c9cc32dadce10119018c429eed1eda864736f6c634300080b0033",
  "immutableReferences": {},
  "source": "// SPDX-License-Identifier: MIT\r\npragma solidity >=0.7.0 <0.9.0;\r\n\r\nimport \"./ERC721.sol\";\r\nimport \"./ERC721Enumerable.sol\";\r\nimport \"@openzeppelin/contracts/access/Ownable.sol\";\r\n\r\ncontract TimelessNFT is ERC721Enumerable, Ownable {\r\n    using Strings for uint256;\r\n    mapping(string => uint8) existingURIs;\r\n    mapping(uint256 => address) public holderOf;\r\n\r\n    address public artist;\r\n    uint256 public royalityFee;\r\n    uint256 public supply = 0;\r\n    uint256 public totalTx = 0;\r\n    uint256 public cost = 0.01 ether;\r\n\r\n    event Sale(\r\n        uint256 id,\r\n        address indexed owner,\r\n        uint256 cost,\r\n        string metadataURI,\r\n        uint256 timestamp\r\n    );\r\n\r\n    struct TransactionStruct {\r\n        uint256 id;\r\n        address owner;\r\n        uint256 cost;\r\n        string title;\r\n        string description;\r\n        string metadataURI;\r\n        uint256 timestamp;\r\n    }\r\n\r\n    TransactionStruct[] transactions;\r\n    TransactionStruct[] minted;\r\n\r\n    constructor(\r\n        string memory _name,\r\n        string memory _symbol,\r\n        uint256 _royalityFee,\r\n        address _artist\r\n    ) ERC721(_name, _symbol) {\r\n        royalityFee = _royalityFee;\r\n        artist = _artist;\r\n    }\r\n\r\n    function payToMint(\r\n        string memory title,\r\n        string memory description,\r\n        string memory metadataURI,\r\n        uint256 salesPrice\r\n    ) external payable {\r\n        require(msg.value >= cost, \"Ether too low for minting!\");\r\n        require(existingURIs[metadataURI] == 0, \"This NFT is already minted!\");\r\n        require(msg.sender != owner(), \"Sales not allowed!\");\r\n        \r\n\r\n        uint256 royality = (msg.value * royalityFee) / 100;\r\n        payTo(artist, royality);\r\n        payTo(owner(), (msg.value - royality));\r\n\r\n        supply++;\r\n\r\n        minted.push(\r\n            TransactionStruct(\r\n                supply,\r\n                msg.sender,\r\n                salesPrice,\r\n                title,\r\n                description,\r\n                metadataURI,\r\n                block.timestamp\r\n            )\r\n        );\r\n\r\n        emit Sale(\r\n            supply,\r\n            msg.sender,\r\n            msg.value,\r\n            metadataURI,\r\n            block.timestamp\r\n        );\r\n\r\n        _safeMint(msg.sender, supply);\r\n        existingURIs[metadataURI] = 1;\r\n        holderOf[supply] = msg.sender;\r\n    }\r\n\r\n    function payToBuy(uint256 id) external payable {\r\n        require(msg.value >= minted[id - 1].cost, \"Ether too low for purchase!\");\r\n        require(msg.sender != minted[id - 1].owner, \"Operation Not Allowed!\");\r\n\r\n        uint256 royality = (msg.value * royalityFee) / 100;\r\n        payTo(artist, royality);\r\n        payTo(minted[id - 1].owner, (msg.value - royality));\r\n\r\n        totalTx++;\r\n\r\n        transactions.push(\r\n            TransactionStruct(\r\n                totalTx,\r\n                msg.sender,\r\n                msg.value,\r\n                minted[id - 1].title,\r\n                minted[id - 1].description,\r\n                minted[id - 1].metadataURI,\r\n                block.timestamp\r\n            )\r\n        );\r\n\r\n        emit Sale(\r\n            totalTx,\r\n            msg.sender,\r\n            msg.value,\r\n            minted[id - 1].metadataURI,\r\n            block.timestamp\r\n        );\r\n\r\n        minted[id - 1].owner = msg.sender;\r\n    }\r\n\r\n    function changePrice(uint256 id, uint256 newPrice) external returns (bool) {\r\n        require(newPrice > 0 ether, \"Ether too low!\");\r\n        require(msg.sender == minted[id - 1].owner, \"Operation Not Allowed!\");\r\n\r\n        minted[id - 1].cost = newPrice;\r\n        return true;\r\n    }\r\n\r\n    function payTo(address to, uint256 amount) internal {\r\n        (bool success, ) = payable(to).call{value: amount}(\"\");\r\n        require(success);\r\n    }\r\n\r\n    function getAllNFTs() external view returns (TransactionStruct[] memory) {\r\n        return minted;\r\n    }\r\n\r\n    function getNFT(uint256 id) external view returns (TransactionStruct memory) {\r\n        return minted[id - 1];\r\n    }\r\n\r\n    function getAllTransactions() external view returns (TransactionStruct[] memory) {\r\n        return transactions;\r\n    }\r\n\r\n\r\nfunction getOwnedNFTs() external view returns (TransactionStruct[] memory) {\r\n    uint256 balance = balanceOf(msg.sender);\r\n    TransactionStruct[] memory ownedNFTs = new TransactionStruct[](balance);\r\n    uint256 index = 0;\r\n\r\n    for (uint256 i = 0; i < balance; i++) {\r\n        uint256 tokenId = tokenOfOwnerByIndex(msg.sender, i);\r\n        if (holderOf[tokenId] == msg.sender) {\r\n            ownedNFTs[index] = minted[tokenId - 1];\r\n            index++;\r\n        }\r\n    }\r\n\r\n    return ownedNFTs;\r\n}\r\n  function getAccountTransactions() external view returns (TransactionStruct[] memory) {\r\n    uint256 count = 0;\r\n    for (uint256 i = 0; i < transactions.length; i++) {\r\n        if (transactions[i].owner == msg.sender) {\r\n            count++;\r\n        }\r\n    }\r\n    TransactionStruct[] memory result = new TransactionStruct[](count);\r\n    uint256 j = 0;\r\n    for (uint256 i = 0; i < transactions.length; i++) {\r\n        if (transactions[i].owner == msg.sender) {\r\n            result[j] = transactions[i];\r\n            j++;\r\n        }\r\n    }\r\n    return result;\r\n}\r\n}",
  "sourcePath": "C:\\Users\\ADMIN\\Desktop\\New folder\\lastTest\\timelessNFT\\src\\contracts\\TimelessNFT.sol",
  "compiler": {
    "name": "solc",
    "version": "0.8.11+commit.d7f03943.Emscripten.clang"
  },
  "schemaVersion": "3.4.11",
  "updatedAt": "2023-02-25T10:47:29.618Z",
  "networkType": "ethereum",
  "devdoc": {
    "kind": "dev",
    "methods": {
      "approve(address,uint256)": {
        "details": "See {IERC721-approve}."
      },
      "balanceOf(address)": {
        "details": "See {IERC721-balanceOf}."
      },
      "getApproved(uint256)": {
        "details": "See {IERC721-getApproved}."
      },
      "isApprovedForAll(address,address)": {
        "details": "See {IERC721-isApprovedForAll}."
      },
      "name()": {
        "details": "See {IERC721Metadata-name}."
      },
      "owner()": {
        "details": "Returns the address of the current owner."
      },
      "ownerOf(uint256)": {
        "details": "See {IERC721-ownerOf}."
      },
      "renounceOwnership()": {
        "details": "Leaves the contract without owner. It will not be possible to call `onlyOwner` functions anymore. Can only be called by the current owner. NOTE: Renouncing ownership will leave the contract without an owner, thereby removing any functionality that is only available to the owner."
      },
      "safeTransferFrom(address,address,uint256)": {
        "details": "See {IERC721-safeTransferFrom}."
      },
      "safeTransferFrom(address,address,uint256,bytes)": {
        "details": "See {IERC721-safeTransferFrom}."
      },
      "setApprovalForAll(address,bool)": {
        "details": "See {IERC721-setApprovalForAll}."
      },
      "supportsInterface(bytes4)": {
        "details": "See {IERC165-supportsInterface}."
      },
      "symbol()": {
        "details": "See {IERC721Metadata-symbol}."
      },
      "tokenByIndex(uint256)": {
        "details": "See {IERC721Enumerable-tokenByIndex}."
      },
      "tokenOfOwnerByIndex(address,uint256)": {
        "details": "See {IERC721Enumerable-tokenOfOwnerByIndex}."
      },
      "tokenURI(uint256)": {
        "details": "See {IERC721Metadata-tokenURI}."
      },
      "totalSupply()": {
        "details": "See {IERC721Enumerable-totalSupply}."
      },
      "transferFrom(address,address,uint256)": {
        "details": "See {IERC721-transferFrom}."
      },
      "transferOwnership(address)": {
        "details": "Transfers ownership of the contract to a new account (`newOwner`). Can only be called by the current owner."
      }
    },
    "version": 1
  },
  "userdoc": {
    "kind": "user",
    "methods": {},
    "version": 1
  }
}